:1000000098C00000B1C00000AFC00000ADC000004B
:10001000ABC00000A9C00000A7C00000A5C0000040
:10002000A3C00000A1C000009FC00000DDC300000D
:100030009BC0000099C0000097C0000095C0000060
:1000400093C0000091C000008FC000008DC0000070
:100050008BC0000089C0000087C00000DDC1000027
:1000600083C0000081C000007FC000007DC0000090
:100070007BC00000B304D1047A05D1047A050605DB
:1000800023057A05420554051A03410072006400F5
:10009000750069006E006F0020004D0049004400AB
:1000A00049000000100341007200640075006900FF
:1000B0006E006F00000004030904090265000201DC
:1000C00000C0320904000000010100000924010001
:1000D00001090001010904010002010300000724D5
:1000E000010001410006240201010006240202026F
:1000F0000009240301030102010009240302040191
:100100000101000905010240000000000525010170
:1001100001090582024000000000052501010312CB
:1001200001100100000008EB03482000000102005C
:10013000010011241FBECFEFD2E0DEBFCDBF11E022
:10014000A0E0B1E0E0E5FCE002C005900D92AA302D
:10015000B107D9F712E0AAE0B1E001C01D92AF31BA
:10016000B107E1F79AD072C54BCFFC01E058FF4FC1
:10017000A081B1816C93A081B1819D012F5F3F4F20
:10018000318320832E173F0721F412969C938E9380
:1001900011972FB7F894FC01EC57FF4F80818F5FC8
:1001A00080832FBF0895DC01AE57BF4FED91FC91C6
:1001B000119741911196FC93EE939C0120583F4F6B
:1001C000E217F30711F48D939C932FB7F894FC0179
:1001D000EC57FF4F9081915090832FBF842F08954B
:1001E0009BB18095906389238BB908952FB7F894BC
:1001F000FC0180812FBF0895BF92CF92DF92EF92D2
:10020000FF920F931F93CF93DF9384B7877F84BFB1
:1002100088E10FB6F89480936000109260000FBEE2
:100220008CECC82ED12C88E090E0F601918380837D
:100230009AECE92EF12C26E0B22EF701B08208EC00
:1002400010E0F8011082C9ECD0E088E18883539A6D
:100250005A9A8AB180638AB98BB180638BB9B9D25B
:1002600084E085BD1882F8011082F701108280E1D8
:1002700090E0F60191838083F701B08282E0F8017B
:10028000808388E98883DF91CF911F910F91FF9040
:10029000EF90DF90CF90BF900895CF93DF93CDB7CD
:1002A000DEB728970FB6F894DEBF0FBECDBFA4DF30
:1002B0002FB7F8948FE891E09093100280930F028B
:1002C00090931202809311022FBF2FB7F8948AE007
:1002D00091E090938B0180938A0190938D0180939C
:1002E0008C012FBF80E27CDF7894E12CF12C00E0C0
:1002F00010E09E012B5F3F4F690140E8A42EB12C16
:100300008EE891E073DF843030F18E010F5F1F4F74
:100310008AE091E048DFF80181938F01EC15FD053B
:10032000B9F79981892F82958F708D838A81815049
:100330008F70907F892B8E838B818F838C818887B0
:10034000B60180E091E029D480E091E046D45D9848
:1003500000E117E203C00115110531F00150110948
:100360000115110509F45D9AB60180E091E04AD4C7
:10037000882349F183E192E039DF9501281B310997
:1003800024303105F8F08D818295807F89838E81BC
:100390008F708F5F8A838F818B8388858C83CE015A
:1003A00001967C01EC14FD0439F0F70161917F01A5
:1003B0008FE891E0DADEF6CF5C9830E1E32E37E2A9
:1003C000F32E04C05C98E114F10439F0F1E0EF1A67
:1003D000F108E114F10409F45C9A83E192E006DF8C
:1003E000882349F08FE891E0DEDE9091C80095FF08
:1003F000FCCF8093CE0087D383CF80E1F1CE80E223
:10040000EFCE80E0EDDE80E091E08ED3811102C07E
:1004100080E3E6CE089508951F920F920FB60F92D3
:1004200011242F933F934F935F936F937F938F93F9
:100430009F93AF93BF93EF93FF93CF93DF931F925D
:10044000CDB7DEB76091CE008EE891E06983CEDE55
:100450006981803819F08AE091E087DE0F90DF91A2
:10046000CF91FF91EF91BF91AF919F918F917F912C
:100470006F915F914F913F912F910F900FBE0F9011
:100480001F901895292F33272230310559F023303A
:10049000310569F021303105F9F482E190E02FE176
:1004A00031E01EC085E690E02AEB30E019C09927C4
:1004B0008130910541F08230910541F0892B61F442
:1004C000E6EBF0E005C0E4EAF0E002C0E8E8F0E0C6
:1004D000849190E09F0104C080E090E020E030E053
:1004E000FA0131832083089528E030E040E02817A6
:1004F000390720F44F5F220F331FF9CF842F8295E5
:10050000807F08958093E900EBEEF0E080818160C8
:100510008083EDEEF0E010826093EC0040838091E8
:10052000EE00881F8827881F08951092F40080E04D
:100530008093E9001092F0001092E8001092ED0014
:100540009091EB009E7F9093EB008F5F853081F759
:1005500008958091170287FD05C08091E80080FF13
:100560000DC010C08091E80082FD04C08EB38111DF
:10057000F9CF08958091E8008B7707C08EB3811181
:10058000ECCF08958091E8008E778093E80008957D
:1005900085E69091EC0090FF05C09091E80090FFF7
:1005A00005C01BC09091E80092FD17C09EB399232F
:1005B000B1F09EB39530A9F09091EB0095FD13C07A
:1005C0009091E10092FFE5CF9091E1009B7F9093A5
:1005D000E1008150F1F684E0089580E0089582E022
:1005E000089583E0089581E00895EF92FF920F93BC
:1005F0001F93CF93DF93EC018B017A01C9DF811147
:100600001DC001151105C9F08091E80085FD0EC0DF
:100610008091E8008E778093E800E114F10471F393
:10062000F7010995813051F785E008C088818093F2
:10063000F100015011092196E4CF80E0DF91CF91C4
:100640001F910F91FF90EF900895EF92FF920F93FB
:100650001F93CF93DF93EC018B017A0199DF811116
:100660001DC001151105C9F08091E80085FD0EC07F
:100670008091E8008B778093E800E114F10471F336
:10068000F7010995813051F785E008C08091F100AC
:100690008883015011092196E4CF80E0DF91CF914A
:1006A0001F910F91FF90EF90089520911D023091BE
:1006B0001E022617370748F06115710539F420919D
:1006C000E8002E772093E80001C0B90130E0611501
:1006D000710599F12091E80023FD39C02091E800CF
:1006E00022FF06C08091E80082FF2AC080E00895C2
:1006F0002EB3222371F12EB3253069F12091E80049
:1007000020FFE5CF2091F200FC01CF0161157105BA
:1007100051F0283040F484918093F10061507109C8
:100720002F5F3196F2CF31E0283009F030E0209190
:10073000E8002E772093E800CACF3111CBCFD2CF7B
:100740008EB3882331F08EB3853061F604C081E02A
:10075000089582E0089583E0089540D042D01EBA03
:10076000109215021092140284E089BD89B582604E
:1007700089BD09B400FEFDCF8091D800982F9F77E6
:100780009093D80080688093D800809163008E7F1A
:10079000809363008091D8008F7D8093D8008091F2
:1007A000E0008E7F8093E0008091E1008E7F809357
:1007B000E1008091E20081608093E2008091E1009D
:1007C000877F8093E1008091E20088608093E2005F
:1007D0000895C3DF81E08093160208951092E2002D
:1007E00008951092E10008951F920F920FB60F9294
:1007F00011242F933F934F935F936F937F938F9326
:100800009F93AF93BF93EF93FF938091E10080FF9D
:100810001BC08091E20080FF17C08091E1008E7FB5
:100820008093E1008091E2008E7F8093E2008091CE
:10083000E20080618093E2008091D8008062809322
:10084000D80019BC1EBADBDD8091E10084FF29C00D
:100850008091E20084FF25C084E089BD89B5826073
:1008600089BD09B400FEFDCF8091D8008F7D8093B3
:10087000D8008091E1008F7E8093E1008091E200BA
:100880008F7E8093E2008091E20081608093E2009D
:1008900080911502882311F084E001C081E08EBBB5
:1008A000ACDD8091E10083FF22C08091E20083FFF4
:1008B0001EC08091E100877F8093E10082E08EBBC3
:1008C000109215028091E1008E7F8093E10080916B
:1008D000E2008E7F8093E2008091E200806180934D
:1008E000E20023DE42E060E080E00CDE0BD180918C
:1008F000E10082FF0AC08091E20082FF06C0809181
:10090000E1008B7F8093E100FDD0FF91EF91BF91DB
:10091000AF919F918F917F916F915F914F913F9197
:100920002F910F900FBE0F901F9018951F93CF938C
:10093000DF9300D0CDB7DEB7E7E1F2E08091F100C0
:10094000819382E0EF31F807C9F7209117023091C7
:100950001802832F90E08A30910508F0CBC0FC018B
:10096000E65CFF4F6DC1203881F0223809F0C2C02B
:1009700080911B0287708093E9009091EB0095FBBA
:10098000992790F91092E90002C090911402809189
:10099000E800877F8093E8009093F1001092F100C7
:1009A0007CC0822F8D7F09F0A5C0223009F093C052
:1009B00080911902811124C020911B02277009F433
:1009C0008AC02093E9008091EB0080FF84C0809171
:1009D000EB00333011F4806211C080618093EB0032
:1009E00081E090E0022E01C0880F0A94EAF780931C
:1009F000EA001092EA008091EB0088608093EB009F
:100A00001092E9008091E800877F4AC0211172C0EE
:100A1000109119028091E800877F8093E80099DDAA
:100A20008091E80080FD04C08EB38111F9CF53C0DE
:100A3000812F8F7711F093E001C092E09EBB806818
:100A40008093E30048C02058223008F053C0AE0124
:100A50004F5F5F4F60911B028091190290911A02C3
:100A600011DD0097C1F12091E800277F2093E80075
:100A7000BC0189819A8119DE8091E8008B7780938F
:100A8000E80029C02038B1F58091E800877F809385
:100A9000E800809115028093F1008091E8008E7744
:100AA0008093E80056DD17C0211124C090911902EF
:100AB000923088F48091E800877F8093E8009093DB
:100AC000150247DD80911502882311F084E001C0F2
:100AD00083E08EBB96DC8091E80083FF0DC080919F
:100AE000EB0080628093EB008091E800877F809329
:100AF000E80002C090DCEFCF0F900F90DF91CF9114
:100B00001F9108950895CF938EB3882359F0C09113
:100B1000E900C7701092E9008091E80083FD06DFCC
:100B2000C093E900CF9108950F931F93CF93DF9364
:100B3000EC011981111105C01D81111115C081E051
:100B400027C02A813B818C81882311F004E001C0F9
:100B500000E0C901C9DC402F482B426061E8812FC9
:100B6000D1DC8111E9CF14C02E813F818885882393
:100B700011F0C4E001C0C0E0C901B6DC4C2F482B25
:100B8000426060E8812FDF91CF911F910F91BACC25
:100B9000DF91CF911F910F910895FC01CB012EB3EE
:100BA0002430C9F421812093E9002091E80025FF39
:100BB00010C040E050E064E070E017DD81110CC02F
:100BC0008091E80085FD05C08091E8008E778093D4
:100BD000E80080E0089582E008952EB3243071F497
:100BE000FC0181818093E9008091F200882341F02B
:100BF0008091E8008E778093E800CACC82E0089567
:100C000080E00895FC01CB012EB3243011F080E088
:100C1000089525812093E9002091E80025FFF7CF72
:100C200040E050E064E070E010DD8091E80085FD78
:100C300005C08091E8008B778093E80081E00895FB
:100C4000EE0FFF1F0590F491E02D0994F894FFCF6B
:0A0C50000102400000014000000016
:00000001FF
