:1000000092C00000ABC00000A9C00000A7C0000063
:10001000A5C00000A3C00000A1C000009FC0000058
:100020009DC000009BC0000099C00000BEC300003E
:1000300095C0000093C0000091C000008FC0000078
:100040008DC000008BC0000089C0000087C0000088
:1000500085C0000083C0000081C0000044C10000D2
:100060007DC000007BC0000079C0000077C00000A8
:1000700075C000009404B2045B05B2045B05E7049C
:1000800004055B052305350512034B006500790067
:1000900062006F0061007200640000001003410004
:1000A00072006400750069006E006F0000000403B8
:1000B000090409022200010100C032090400000104
:1000C00003010100092111010001224000070581FF
:1000D0000308000A1201100100000008EB0342208F
:1000E00000000102000105010906A1017501950842
:1000F000050719E029E7150025018102950175081A
:1001000081039505750105081901290591029501DD
:100110007503910395067508150026E70005071974
:100120000029E78100C011241FBECFEFD2E0DEBF5F
:10013000CDBF11E0A0E0B1E0E0E0FFE002C005903B
:100140000D92AE30B107D9F711E0AEE0B1E001C0D9
:100150001D92AF3AB107E1F74FD0D0C651CFBF9251
:10016000CF92DF92EF92FF920F931F93CF93DF9383
:1001700084B7877F84BF88E10FB6F89480936000CE
:10018000109260000FBE8CECC82ED12C87E690E058
:10019000F601918380839AECE92EF12C26E0B22EB1
:1001A000F701B08208EC10E0F8011082C9ECD0E051
:1001B00088E18883539A5A9AEDD284E085BD5F9A8C
:1001C000579A1882F8011082F70110828FEC90E0A4
:1001D000F60191838083F701B08282E0F801808389
:1001E00088E98883DF91CF911F910F91FF90EF9065
:1001F000DF90CF90BF900895B2DF2FB7F8948FE1D2
:1002000091E09093A00180939F019093A20180932D
:10021000A1012FBF789480E091E0A4D555D4FBCF05
:100220000895089580E091E07AD5E2EEF0E08081D3
:1002300084608083089580E091E057C480910B0131
:1002400090910C01009729F0019790930C018093F5
:100250000B0108950F931F939FB7F8948091A3010A
:100260009FBF883048F1AFE0B1E08FE191E0E091CD
:10027000A101F091A2015191F093A201E093A1019B
:10028000EF59F14021F49093A2018093A1016FB73F
:10029000F8944091A30141504093A3016FBF5D9337
:1002A000E1E0A731BE0719F780910E019091C800D7
:1002B00095FFFCCF8093CE00AFE0B1E0F9018D91C6
:1002C000819341E0A731B407D1F788E090E0F801CD
:1002D0009183808380E01F910F910895F9018081BF
:1002E00080930E0108951F920F920FB60F92112462
:1002F0002F938F939F93EF93FF938091CE009EB3A4
:100300009430F1F4E0919F01F091A0018083E0919D
:100310009F01F091A001CF0101969093A0018093DD
:100320009F018F59914021F48FE191E09283818365
:100330009FB7F8948091A3018F5F8093A3019FBF23
:10034000FF91EF919F918F912F910F900FBE0F9082
:100350001F901895292F332723303105B9F05CF40D
:100360002130310569F12230310579F582E290E0E2
:1003700022EB30E02EC021323105E9F02232310586
:1003800021F580E490E026EE30E023C0992781300B
:10039000910541F08230910541F0892BB1F4EEEAEC
:1003A000F0E005C0ECE9F0E002C0E8E8F0E084919C
:1003B00090E09F010EC089E090E024EC30E009C09D
:1003C00082E190E024ED30E004C080E090E020E0A5
:1003D00030E0FA0131832083089528E030E040E0E6
:1003E0002817390720F44F5F220F331FF9CF842FCE
:1003F0008295807F08958093E900EBEEF0E08081A4
:1004000081608083EDEEF0E010826093EC00408329
:100410008091EE00881F8827881F08951092F400AD
:1004200080E08093E9001092F0001092E8001092B2
:10043000ED009091EB009E7F9093EB008F5F8530F5
:1004400081F708958091A70187FD05C08091E8009C
:1004500080FF0DC010C08091E80082FD04C08EB303
:100460008111F9CF08958091E8008B7707C08EB392
:100470008111ECCF08958091E8008E778093E80099
:10048000089585E69091EC0090FF05C09091E800FA
:1004900090FF05C01BC09091E80092FD17C09EB36D
:1004A0009923B1F09EB39530A9F09091EB0095FDA2
:1004B00013C09091E10092FFE5CF9091E1009B7F06
:1004C0009093E1008150F1F684E0089580E0089572
:1004D00082E0089583E0089581E00895EF92FF920D
:1004E0000F931F93CF93DF93EC018B017A01C9DF48
:1004F00081111DC001151105C9F08091E80085FD2D
:100500000EC08091E8008E778093E800E114F1043A
:1005100071F3F7010995813051F785E008C08881B2
:100520008093F100015011092196E4CF80E0DF9122
:10053000CF911F910F91FF90EF9008952091AD0101
:100540003091AE012617370748F06115710539F46F
:100550002091E8002E772093E80001C0B90130E037
:100560006115710591F12091E80023FD38C02091BB
:10057000E80022FF06C08091E80082FF29C080E0E9
:1005800008952EB3222369F12EB3253061F1209115
:10059000E80020FFE5CF2091F200FC01CF016115BA
:1005A000710549F0283038F481918093F100615051
:1005B00071092F5FF3CF31E0283009F030E020914E
:1005C000E8002E772093E800CBCF3111CCCFD3CFEA
:1005D0008EB3882331F08EB3853069F604C081E094
:1005E000089582E0089583E008952091AD0130914F
:1005F000AE012617370748F06115710539F42091CF
:10060000E8002E772093E80001C0B90130E06115C1
:10061000710599F12091E80023FD39C02091E8008F
:1006200022FF06C08091E80082FF2AC080E0089582
:100630002EB3222371F12EB3253069F12091E80009
:1006400020FFE5CF2091F200FC01CF01611571057B
:1006500051F0283040F484918093F1006150710989
:100660002F5F3196F2CF31E0283009F030E0209151
:10067000E8002E772093E800CACF3111CBCFD2CF3C
:100680008EB3882331F08EB3853061F604C081E0EB
:10069000089582E0089583E008956115710529F4B5
:1006A0002091E8002B772093E8006115710549F14E
:1006B0002091E80023FD2AC02EB3222359F12EB346
:1006C000253051F12091E80022FFF2CFFC0180910A
:1006D000F200882371F09F012F5F3F4FC9014091C5
:1006E000F10040836150710961157105C9F2F9018A
:1006F000EECFCF01D5CF8EB3882361F08EB3853096
:1007000059F08091E80080FFF6CF02C081E00895A3
:1007100080E0089582E0089583E0089540D042D0BB
:100720001EBA1092A5011092A40184E089BD89B57A
:10073000826089BD09B400FEFDCF8091D800982F5A
:100740009F779093D80080688093D8008091630051
:100750008E7F809363008091D8008F7D8093D80036
:100760008091E0008E7F8093E0008091E1008E7F99
:100770008093E1008091E20081608093E2008091AB
:10078000E100877F8093E1008091E20088608093A0
:10079000E2000895C3DF81E08093A60108951092DE
:1007A000E20008951092E10008951F920F920FB693
:1007B0000F9211242F933F934F935F936F937F93E7
:1007C0008F939F93AF93BF93EF93FF938091E1003B
:1007D00080FF1BC08091E20080FF17C08091E10084
:1007E0008E7F8093E1008091E2008E7F8093E20013
:1007F0008091E20080618093E2008091D800806265
:100800008093D80019BC1EBA0CDD8091E10084FFF2
:1008100029C08091E20084FF25C084E089BD89B5AC
:10082000826089BD09B400FEFDCF8091D8008F7D24
:100830008093D8008091E1008F7E8093E1008091C9
:10084000E2008F7E8093E2008091E20081608093DD
:10085000E2008091A501882311F084E001C081E0CD
:100860008EBBDEDC8091E10083FF22C08091E2003C
:1008700083FF1EC08091E100877F8093E10082E0CA
:100880008EBB1092A5018091E1008E7F8093E100E4
:100890008091E2008E7F8093E2008091E20080618F
:1008A0008093E200BBDD42E060E080E0A4DD0BD19C
:1008B0008091E10082FF0AC08091E20082FF06C0C1
:1008C0008091E1008B7F8093E100B8DCFF91EF9194
:1008D000BF91AF919F918F917F916F915F914F9158
:1008E0003F912F910F900FBE0F901F9018951F935F
:1008F000CF93DF9300D0CDB7DEB7E7EAF1E0809188
:10090000F100819381E0EF3AF807C9F72091A70140
:100910003091A801832F90E08A30910508F0CBC078
:10092000FC01E65CFF4FC7C2203881F0223809F095
:10093000C2C08091AB0187708093E9009091EB0079
:1009400095FB992790F91092E90002C09091A401BB
:100950008091E800877F8093E8009093F1001092E7
:10096000F1007CC0822F8D7F09F0A5C0223009F0F4
:1009700093C08091A901811124C02091AB012770FF
:1009800009F48AC02093E9008091EB0080FF84C0C5
:100990008091EB00333011F4806211C0806180934C
:1009A000EB0081E090E0022E01C0880F0A94EAF784
:1009B0008093EA001092EA008091EB0088608093B7
:1009C000EB001092E9008091E800877F4AC0211176
:1009D00072C01091A9018091E800877F8093E800A0
:1009E00031DD8091E80080FD04C08EB38111F9CF24
:1009F00053C0812F8F7711F093E001C092E09EBB2E
:100A000080688093E30048C02058223008F053C02B
:100A1000AE014F5F5F4F6091AB018091A901909152
:100A2000AA0198DC0097C1F12091E800277F20936C
:100A3000E800BC0189819A81D8DD8091E8008B773C
:100A40008093E80029C02038B1F58091E800877FC5
:100A50008093E8008091A5018093F1008091E800E7
:100A60008E778093E800EEDC17C0211124C09091AE
:100A7000A901923088F48091E800877F8093E80094
:100A80009093A501DFDC8091A501882311F084E01B
:100A900001C083E08EBBC6DB8091E80083FF0DC000
:100AA0008091EB0080628093EB008091E800877F6B
:100AB0008093E80002C0BFDBEFCF0F900F90DF9173
:100AC000CF911F9108950895CF938EB3882359F045
:100AD000C091E900C7701092E9008091E80083FDA1
:100AE00006DFC093E900CF9108958F929F92AF9255
:100AF000BF92CF92DF92EF92FF920F931F93CF930B
:100B0000DF9300D01F92CDB7DEB77C01ADB6BEB685
:100B10008091E80083FFEEC0F701808190E0209192
:100B2000AB013091AC012817390709F0E3C080917F
:100B3000A801833009F490C030F4813071F0823024
:100B400009F4C0C0D7C08A3009F4A5C08B3009F4BD
:100B500090C0893009F0CEC04CC08091A701813A85
:100B600009F0C8C08DB69EB68091E800877F80935B
:100B7000E8001A8219828091A9011091AA018B8341
:100B8000F701478150E08DB79EB7841B950B0FB6D8
:100B9000F8949EBF0FBE8DBFEDB7FEB731966F01C3
:100BA00060E070E0CF01A3D14FEF410F8E010F5FE6
:100BB0001F4F9601BE016D5F7F4FC7014BDBF701F1
:100BC00085819681009721F0478150E0B60186D15A
:100BD0001092E90069817A81C601B0DC8091E80059
:100BE0008B778093E8000FB6F8949EBE0FBE8DBE43
:100BF00081C08091A701813209F07CC08091E8001A
:100C0000877F8093E8000091AD011091AE01909034
:100C1000A9018090AA018DB79EB7801B910B0FB6DA
:100C2000F8949EBF0FBE8DBFEDB7FEB731966F0132
:100C3000B801CF0132DD4FEF480D9601692DC70194
:100C40004DDB8091E8008E778093E8000FB6F89432
:100C5000BEBE0FBEADBE4EC08091A701813A09F065
:100C600049C08091E800877F8093E800F701808584
:100C700039C08091A7018132E9F58091E800877F32
:100C80008093E8009091A90181E0911101C080E07A
:100C9000F70180872EC08091A701813259F580919C
:100CA000E800877F8093E8008091A9019091AA01D4
:100CB000882736E0969587953A95E1F7F701928770
:100CC000818717C08091A701813AA1F48091E80043
:100CD000877F8093E800F7018185928596958795B7
:100CE000969587958093F1008091E8008E778093A8
:100CF000E800A8DB0FB6F894BEBE0FBEADBE0F90E5
:100D00000F900F90DF91CF911F910F91FF90EF9077
:100D1000DF90CF90BF90AF909F908F900895CF932A
:100D2000DF93FC01DC01189685E0ED0119928A95AC
:100D3000E9F781E0808784EF91E0928781872281C3
:100D400033818481882311F0C4E001C0C0E0D181E7
:100D5000C90143DB4C2F482B426061EC8D2FDF91A2
:100D6000CF9149CB5F926F927F928F929F92AF9279
:100D7000BF92CF92DF92EF92FF920F931F93CF9388
:100D8000DF9300D01F92CDB7DEB77C01ADB6BEB603
:100D90008EB3843009F077C0F70181818093E90038
:100DA0008091E80085FF6FC08DB69EB6478150E008
:100DB0008DB79EB7841B950B0FB6F8949EBF0FBEE0
:100DC0008DBFEDB7FEB731966F011B821A82198273
:100DD00060E070E0CF018BD08E010F5F1F4F960156
:100DE00040E0BE016D5F7F4FC70134DA682EF70126
:100DF00081859285892B41F021E083859485892B1B
:100E000009F020E0722E01C0712CF70105811681D6
:100E10000115110589F049815A81B801C60151D0E7
:100E200055245394892B09F4512CF701478150E044
:100E3000B601C80153D001C0512C29813A81232B1E
:100E4000E9F0611004C0511002C070FE17C0F70134
:100E5000818592859487838781818093E9008B8146
:100E600081118093F10069817A8140E050E0C601F0
:100E700035DB8091E8008E778093E8000FB6F89418
:100E80009EBE0FBE8DBE0FB6F894BEBE0FBEADBEE9
:100E90000F900F900F90DF91CF911F910F91FF90C6
:100EA000EF90DF90CF90BF90AF909F908F907F900A
:100EB0006F905F900895EE0FFF1F0590F491E02D65
:100EC0000994FB01DC0104C08D910190801921F48B
:100ED00041505040C8F7881B990B0895FB01DC0175
:100EE00002C001900D9241505040D8F70895DC01A6
:100EF00001C06D9341505040E0F70895F894FFCF42
:0E0F00000001080000170108000000000000BA
:00000001FF
